{
    "contractName": "CrossChainPool",
    "abi": [
        {
            "inputs": [
                {
                    "internalType": "address",
                    "name": "_underlyingToken",
                    "type": "address"
                },
                {
                    "internalType": "string",
                    "name": "_name",
                    "type": "string"
                },
                {
                    "internalType": "uint64",
                    "name": "_crossChainSelector",
                    "type": "uint64"
                },
                {
                    "internalType": "address",
                    "name": "_router",
                    "type": "address"
                },
                {
                    "internalType": "address",
                    "name": "_otherChainUnderlyingToken",
                    "type": "address"
                }
            ],
            "stateMutability": "nonpayable",
            "type": "constructor"
        },
        {
            "inputs": [
                {
                    "internalType": "address",
                    "name": "target",
                    "type": "address"
                }
            ],
            "name": "AddressEmptyCode",
            "type": "error"
        },
        {
            "inputs": [
                {
                    "internalType": "address",
                    "name": "account",
                    "type": "address"
                }
            ],
            "name": "AddressInsufficientBalance",
            "type": "error"
        },
        {
            "inputs": [],
            "name": "CrossChainPool__NotLP",
            "type": "error"
        },
        {
            "inputs": [],
            "name": "CrossChainPool__SenderOrSelectorNotAllowed",
            "type": "error"
        },
        {
            "inputs": [],
            "name": "CrossChainPool__ShouldBeMoreThanZero",
            "type": "error"
        },
        {
            "inputs": [],
            "name": "CrossChainPool__UserFeesNotEnough",
            "type": "error"
        },
        {
            "inputs": [],
            "name": "CrossChainPool__WrongUnderlying",
            "type": "error"
        },
        {
            "inputs": [
                {
                    "internalType": "address",
                    "name": "spender",
                    "type": "address"
                },
                {
                    "internalType": "uint256",
                    "name": "allowance",
                    "type": "uint256"
                },
                {
                    "internalType": "uint256",
                    "name": "needed",
                    "type": "uint256"
                }
            ],
            "name": "ERC20InsufficientAllowance",
            "type": "error"
        },
        {
            "inputs": [
                {
                    "internalType": "address",
                    "name": "sender",
                    "type": "address"
                },
                {
                    "internalType": "uint256",
                    "name": "balance",
                    "type": "uint256"
                },
                {
                    "internalType": "uint256",
                    "name": "needed",
                    "type": "uint256"
                }
            ],
            "name": "ERC20InsufficientBalance",
            "type": "error"
        },
        {
            "inputs": [
                {
                    "internalType": "address",
                    "name": "approver",
                    "type": "address"
                }
            ],
            "name": "ERC20InvalidApprover",
            "type": "error"
        },
        {
            "inputs": [
                {
                    "internalType": "address",
                    "name": "receiver",
                    "type": "address"
                }
            ],
            "name": "ERC20InvalidReceiver",
            "type": "error"
        },
        {
            "inputs": [
                {
                    "internalType": "address",
                    "name": "sender",
                    "type": "address"
                }
            ],
            "name": "ERC20InvalidSender",
            "type": "error"
        },
        {
            "inputs": [
                {
                    "internalType": "address",
                    "name": "spender",
                    "type": "address"
                }
            ],
            "name": "ERC20InvalidSpender",
            "type": "error"
        },
        {
            "inputs": [],
            "name": "FailedInnerCall",
            "type": "error"
        },
        {
            "inputs": [
                {
                    "internalType": "address",
                    "name": "router",
                    "type": "address"
                }
            ],
            "name": "InvalidRouter",
            "type": "error"
        },
        {
            "inputs": [],
            "name": "ReentrancyGuardReentrantCall",
            "type": "error"
        },
        {
            "inputs": [
                {
                    "internalType": "address",
                    "name": "token",
                    "type": "address"
                }
            ],
            "name": "SafeERC20FailedOperation",
            "type": "error"
        },
        {
            "anonymous": false,
            "inputs": [
                {
                    "indexed": true,
                    "internalType": "address",
                    "name": "owner",
                    "type": "address"
                },
                {
                    "indexed": true,
                    "internalType": "address",
                    "name": "spender",
                    "type": "address"
                },
                {
                    "indexed": false,
                    "internalType": "uint256",
                    "name": "value",
                    "type": "uint256"
                }
            ],
            "name": "Approval",
            "type": "event"
        },
        {
            "anonymous": false,
            "inputs": [
                {
                    "indexed": true,
                    "internalType": "address",
                    "name": "lp",
                    "type": "address"
                },
                {
                    "indexed": true,
                    "internalType": "uint256",
                    "name": "lptAmount",
                    "type": "uint256"
                },
                {
                    "indexed": true,
                    "internalType": "uint256",
                    "name": "underlyingAmount",
                    "type": "uint256"
                }
            ],
            "name": "DepositedAndMintedLpt",
            "type": "event"
        },
        {
            "anonymous": false,
            "inputs": [
                {
                    "indexed": true,
                    "internalType": "bytes32",
                    "name": "messageId",
                    "type": "bytes32"
                }
            ],
            "name": "MessageReceived",
            "type": "event"
        },
        {
            "anonymous": false,
            "inputs": [
                {
                    "indexed": true,
                    "internalType": "address",
                    "name": "lp",
                    "type": "address"
                },
                {
                    "indexed": true,
                    "internalType": "uint256",
                    "name": "lptAmountBurnt",
                    "type": "uint256"
                },
                {
                    "indexed": true,
                    "internalType": "uint256",
                    "name": "underlyingAmount",
                    "type": "uint256"
                }
            ],
            "name": "Redeemed",
            "type": "event"
        },
        {
            "anonymous": false,
            "inputs": [
                {
                    "indexed": true,
                    "internalType": "uint256",
                    "name": "value",
                    "type": "uint256"
                },
                {
                    "indexed": true,
                    "internalType": "address",
                    "name": "to",
                    "type": "address"
                }
            ],
            "name": "TeleportStarted",
            "type": "event"
        },
        {
            "anonymous": false,
            "inputs": [
                {
                    "indexed": true,
                    "internalType": "address",
                    "name": "from",
                    "type": "address"
                },
                {
                    "indexed": true,
                    "internalType": "address",
                    "name": "to",
                    "type": "address"
                },
                {
                    "indexed": false,
                    "internalType": "uint256",
                    "name": "value",
                    "type": "uint256"
                }
            ],
            "name": "Transfer",
            "type": "event"
        },
        {
            "inputs": [
                {
                    "internalType": "address",
                    "name": "_sender",
                    "type": "address"
                }
            ],
            "name": "addCrossChainSender",
            "outputs": [],
            "stateMutability": "nonpayable",
            "type": "function"
        },
        {
            "inputs": [
                {
                    "internalType": "address",
                    "name": "owner",
                    "type": "address"
                },
                {
                    "internalType": "address",
                    "name": "spender",
                    "type": "address"
                }
            ],
            "name": "allowance",
            "outputs": [
                {
                    "internalType": "uint256",
                    "name": "",
                    "type": "uint256"
                }
            ],
            "stateMutability": "view",
            "type": "function"
        },
        {
            "inputs": [
                {
                    "internalType": "address",
                    "name": "spender",
                    "type": "address"
                },
                {
                    "internalType": "uint256",
                    "name": "value",
                    "type": "uint256"
                }
            ],
            "name": "approve",
            "outputs": [
                {
                    "internalType": "bool",
                    "name": "",
                    "type": "bool"
                }
            ],
            "stateMutability": "nonpayable",
            "type": "function"
        },
        {
            "inputs": [
                {
                    "internalType": "address",
                    "name": "account",
                    "type": "address"
                }
            ],
            "name": "balanceOf",
            "outputs": [
                {
                    "internalType": "uint256",
                    "name": "",
                    "type": "uint256"
                }
            ],
            "stateMutability": "view",
            "type": "function"
        },
        {
            "inputs": [
                {
                    "internalType": "uint256",
                    "name": "_amount",
                    "type": "uint256"
                }
            ],
            "name": "calculateLPTinExchangeOfUnderlying",
            "outputs": [
                {
                    "internalType": "uint256",
                    "name": "",
                    "type": "uint256"
                }
            ],
            "stateMutability": "view",
            "type": "function"
        },
        {
            "inputs": [
                {
                    "internalType": "uint256",
                    "name": "_amount",
                    "type": "uint256"
                }
            ],
            "name": "calculateUnderlyingInExchangeOfLPT",
            "outputs": [
                {
                    "internalType": "uint256",
                    "name": "",
                    "type": "uint256"
                }
            ],
            "stateMutability": "view",
            "type": "function"
        },
        {
            "inputs": [
                {
                    "components": [
                        {
                            "internalType": "bytes32",
                            "name": "messageId",
                            "type": "bytes32"
                        },
                        {
                            "internalType": "uint64",
                            "name": "sourceChainSelector",
                            "type": "uint64"
                        },
                        {
                            "internalType": "bytes",
                            "name": "sender",
                            "type": "bytes"
                        },
                        {
                            "internalType": "bytes",
                            "name": "data",
                            "type": "bytes"
                        },
                        {
                            "components": [
                                {
                                    "internalType": "address",
                                    "name": "token",
                                    "type": "address"
                                },
                                {
                                    "internalType": "uint256",
                                    "name": "amount",
                                    "type": "uint256"
                                }
                            ],
                            "internalType": "struct Client.EVMTokenAmount[]",
                            "name": "destTokenAmounts",
                            "type": "tuple[]"
                        }
                    ],
                    "internalType": "struct Client.Any2EVMMessage",
                    "name": "message",
                    "type": "tuple"
                }
            ],
            "name": "ccipReceive",
            "outputs": [],
            "stateMutability": "nonpayable",
            "type": "function"
        },
        {
            "inputs": [],
            "name": "decimals",
            "outputs": [
                {
                    "internalType": "uint8",
                    "name": "",
                    "type": "uint8"
                }
            ],
            "stateMutability": "view",
            "type": "function"
        },
        {
            "inputs": [
                {
                    "internalType": "contract IERC20",
                    "name": "_token",
                    "type": "address"
                },
                {
                    "internalType": "uint256",
                    "name": "_amount",
                    "type": "uint256"
                }
            ],
            "name": "deposit",
            "outputs": [],
            "stateMutability": "nonpayable",
            "type": "function"
        },
        {
            "inputs": [],
            "name": "getCrossChainSenderAndSelector",
            "outputs": [
                {
                    "internalType": "address",
                    "name": "",
                    "type": "address"
                },
                {
                    "internalType": "uint64",
                    "name": "",
                    "type": "uint64"
                }
            ],
            "stateMutability": "view",
            "type": "function"
        },
        {
            "inputs": [
                {
                    "internalType": "uint256",
                    "name": "_value",
                    "type": "uint256"
                },
                {
                    "internalType": "address",
                    "name": "_to",
                    "type": "address"
                }
            ],
            "name": "getFeesForTeleporting",
            "outputs": [
                {
                    "internalType": "uint256",
                    "name": "",
                    "type": "uint256"
                }
            ],
            "stateMutability": "view",
            "type": "function"
        },
        {
            "inputs": [],
            "name": "getOtherChainUnderlyingToken",
            "outputs": [
                {
                    "internalType": "address",
                    "name": "",
                    "type": "address"
                }
            ],
            "stateMutability": "view",
            "type": "function"
        },
        {
            "inputs": [],
            "name": "getRouter",
            "outputs": [
                {
                    "internalType": "address",
                    "name": "",
                    "type": "address"
                }
            ],
            "stateMutability": "view",
            "type": "function"
        },
        {
            "inputs": [],
            "name": "getUnderlyingToken",
            "outputs": [
                {
                    "internalType": "contract IERC20",
                    "name": "",
                    "type": "address"
                }
            ],
            "stateMutability": "view",
            "type": "function"
        },
        {
            "inputs": [],
            "name": "name",
            "outputs": [
                {
                    "internalType": "string",
                    "name": "",
                    "type": "string"
                }
            ],
            "stateMutability": "view",
            "type": "function"
        },
        {
            "inputs": [
                {
                    "internalType": "uint256",
                    "name": "_lptAmount",
                    "type": "uint256"
                }
            ],
            "name": "redeem",
            "outputs": [],
            "stateMutability": "nonpayable",
            "type": "function"
        },
        {
            "inputs": [
                {
                    "internalType": "bytes4",
                    "name": "interfaceId",
                    "type": "bytes4"
                }
            ],
            "name": "supportsInterface",
            "outputs": [
                {
                    "internalType": "bool",
                    "name": "",
                    "type": "bool"
                }
            ],
            "stateMutability": "pure",
            "type": "function"
        },
        {
            "inputs": [],
            "name": "symbol",
            "outputs": [
                {
                    "internalType": "string",
                    "name": "",
                    "type": "string"
                }
            ],
            "stateMutability": "view",
            "type": "function"
        },
        {
            "inputs": [
                {
                    "internalType": "uint256",
                    "name": "_value",
                    "type": "uint256"
                },
                {
                    "internalType": "address",
                    "name": "_to",
                    "type": "address"
                }
            ],
            "name": "teleport",
            "outputs": [],
            "stateMutability": "payable",
            "type": "function"
        },
        {
            "inputs": [],
            "name": "totalSupply",
            "outputs": [
                {
                    "internalType": "uint256",
                    "name": "",
                    "type": "uint256"
                }
            ],
            "stateMutability": "view",
            "type": "function"
        },
        {
            "inputs": [
                {
                    "internalType": "address",
                    "name": "to",
                    "type": "address"
                },
                {
                    "internalType": "uint256",
                    "name": "value",
                    "type": "uint256"
                }
            ],
            "name": "transfer",
            "outputs": [
                {
                    "internalType": "bool",
                    "name": "",
                    "type": "bool"
                }
            ],
            "stateMutability": "nonpayable",
            "type": "function"
        },
        {
            "inputs": [
                {
                    "internalType": "address",
                    "name": "from",
                    "type": "address"
                },
                {
                    "internalType": "address",
                    "name": "to",
                    "type": "address"
                },
                {
                    "internalType": "uint256",
                    "name": "value",
                    "type": "uint256"
                }
            ],
            "name": "transferFrom",
            "outputs": [
                {
                    "internalType": "bool",
                    "name": "",
                    "type": "bool"
                }
            ],
            "stateMutability": "nonpayable",
            "type": "function"
        }
    ],
    "bytecode": "610100604052348015610010575f80fd5b50604051611da7380380611da783398101604081905261002f9161010d565b6040805180820190915260038082526213141560ea1b602083015283918691610058838261027d565b506004610065828261027d565b50506001600555506001600160a01b03811661009a576040516335fdcccd60e21b81525f600482015260240160405180910390fd5b6001600160a01b0390811660805294851660a05290931660c0526001600160401b031660e0525061033c9050565b80516001600160a01b03811681146100de575f80fd5b919050565b634e487b7160e01b5f52604160045260245ffd5b80516001600160401b03811681146100de575f80fd5b5f805f805f60a08688031215610121575f80fd5b61012a866100c8565b60208701519095506001600160401b0380821115610146575f80fd5b818801915088601f830112610159575f80fd5b81518181111561016b5761016b6100e3565b604051601f8201601f19908116603f01168101908382118183101715610193576101936100e3565b816040528281528b60208487010111156101ab575f80fd5b8260208601602083015e5f6020848301015280985050505050506101d1604087016100f7565b92506101df606087016100c8565b91506101ed608087016100c8565b90509295509295909350565b600181811c9082168061020d57607f821691505b60208210810361022b57634e487b7160e01b5f52602260045260245ffd5b50919050565b601f82111561027857805f5260205f20601f840160051c810160208510156102565750805b601f840160051c820191505b81811015610275575f8155600101610262565b50505b505050565b81516001600160401b03811115610296576102966100e3565b6102aa816102a484546101f9565b84610231565b602080601f8311600181146102dd575f84156102c65750858301515b5f19600386901b1c1916600185901b178555610334565b5f85815260208120601f198616915b8281101561030b578886015182559484019460019091019084016102ec565b508582101561032857878501515f19600388901b60f8161c191681555b505060018460011b0185555b505050505050565b60805160a05160c05160e0516119e46103c35f395f81816103890152818161060d01528181610c640152610d2901525f6103fe01525f818161049301528181610682015281816107750152818161088c0152818161096501528181610a730152610df801525f8181610307015281816105bc0152818161081301526108cf01526119e45ff3fe608060405260043610610131575f3560e01c806385572ffb116100a8578063bfb154c41161006d578063bfb154c41461035e578063c401e59d146103b4578063cf0c6743146103f0578063db006a7514610422578063dd62ed3e14610441578063ee719bc814610485575f80fd5b806385572ffb146102a757806395d89b41146102c6578063a9059cbb146102da578063b0f479a1146102f9578063b84e09311461033f575f80fd5b8063313ce567116100f9578063313ce567146101e65780633f253ba11461020157806347e7ef24146102205780636592aecc1461024157806370a08231146102605780637728c2b514610294575f80fd5b806301ffc9a71461013557806306fdde0314610169578063095ea7b31461018a57806318160ddd146101a957806323b872dd146101c7575b5f80fd5b348015610140575f80fd5b5061015461014f36600461139e565b6104b7565b60405190151581526020015b60405180910390f35b348015610174575f80fd5b5061017d6104ed565b60405161016091906113f3565b348015610195575f80fd5b506101546101a4366004611419565b61057d565b3480156101b4575f80fd5b506002545b604051908152602001610160565b3480156101d2575f80fd5b506101546101e1366004611443565b610594565b3480156101f1575f80fd5b5060405160128152602001610160565b34801561020c575f80fd5b506101b961021b366004611481565b6105b9565b34801561022b575f80fd5b5061023f61023a366004611419565b61067f565b005b34801561024c575f80fd5b506101b961025b3660046114af565b610754565b34801561026b575f80fd5b506101b961027a3660046114c6565b6001600160a01b03165f9081526020819052604090205490565b61023f6102a2366004611481565b610810565b3480156102b2575f80fd5b5061023f6102c13660046114e1565b6108c4565b3480156102d1575f80fd5b5061017d610928565b3480156102e5575f80fd5b506101546102f4366004611419565b610937565b348015610304575f80fd5b507f00000000000000000000000000000000000000000000000000000000000000005b6040516001600160a01b039091168152602001610160565b34801561034a575f80fd5b506101b96103593660046114af565b610944565b348015610369575f80fd5b50600654604080516001600160a01b03909216825267ffffffffffffffff7f000000000000000000000000000000000000000000000000000000000000000016602083015201610160565b3480156103bf575f80fd5b5061023f6103ce3660046114c6565b600680546001600160a01b0319166001600160a01b0392909216919091179055565b3480156103fb575f80fd5b507f0000000000000000000000000000000000000000000000000000000000000000610327565b34801561042d575f80fd5b5061023f61043c3660046114af565b6109f6565b34801561044c575f80fd5b506101b961045b366004611518565b6001600160a01b039182165f90815260016020908152604080832093909416825291909152205490565b348015610490575f80fd5b507f0000000000000000000000000000000000000000000000000000000000000000610327565b5f6001600160e01b031982166385572ffb60e01b14806104e757506001600160e01b031982166301ffc9a760e01b145b92915050565b6060600380546104fc90611544565b80601f016020809104026020016040519081016040528092919081815260200182805461052890611544565b80156105735780601f1061054a57610100808354040283529160200191610573565b820191905f5260205f20905b81548152906001019060200180831161055657829003601f168201915b5050505050905090565b5f3361058a818585610aaf565b5060019392505050565b5f336105a1858285610abc565b6105ac858585610b37565b60019150505b9392505050565b5f7f0000000000000000000000000000000000000000000000000000000000000000816105e68585610b94565b6040516320487ded60e01b81529091506001600160a01b038316906320487ded90610637907f000000000000000000000000000000000000000000000000000000000000000090859060040161157c565b602060405180830381865afa158015610652573d5f803e3d5ffd5b505050506040513d601f19601f820116820180604052508101906106769190611657565b95945050505050565b817f00000000000000000000000000000000000000000000000000000000000000006001600160a01b0316816001600160a01b0316146106d257604051638897569f60e01b815260040160405180910390fd5b815f81116106f35760405163e78b4de560e01b815260040160405180910390fd5b5f6106fd84610944565b6040519091508490829033907f43ff2c54d55b8e26217094b25933fcdeab16bee5cdcc76f0b1bd78f6789288cb905f90a46107436001600160a01b038616333087610ba6565b61074d3382610c0d565b5050505050565b6040516370a0823160e01b81523060048201525f9081906001600160a01b037f000000000000000000000000000000000000000000000000000000000000000016906370a0823190602401602060405180830381865afa1580156107ba573d5f803e3d5ffd5b505050506040513d601f19601f820116820180604052508101906107de9190611657565b90505f6107ea60025490565b9050805f036107fb57509192915050565b5f6108068383611682565b61067690866116a1565b5f7f0000000000000000000000000000000000000000000000000000000000000000905082600b5f82825461084591906116b8565b90915550506040516001600160a01b0383169084907fd675d52fbcbe15f189b86b9e3d782e9498748055ab60b29a2b4febd9d08d5554905f90a36108b46001600160a01b037f000000000000000000000000000000000000000000000000000000000000000016333086610ba6565b6108bf838383610c45565b505050565b336001600160a01b037f00000000000000000000000000000000000000000000000000000000000000001614610914576040516335fdcccd60e21b81523360048201526024015b60405180910390fd5b6109256109208261188c565b610d9e565b50565b6060600480546104fc90611544565b5f3361058a818585610b37565b6040516370a0823160e01b81523060048201525f9081906001600160a01b037f000000000000000000000000000000000000000000000000000000000000000016906370a0823190602401602060405180830381865afa1580156109aa573d5f803e3d5ffd5b505050506040513d601f19601f820116820180604052508101906109ce9190611657565b90505f6109da60025490565b9050805f036109eb57509192915050565b5f6108068284611682565b6109fe610e4f565b335f9081526020819052604081205411610a2b57604051636b4dff8f60e01b815260040160405180910390fd5b5f610a3582610754565b6040519091508190839033907ff3a670cd3af7d64b488926880889d08a8585a138ff455227af6737339a1ec262905f90a4610a9a6001600160a01b037f0000000000000000000000000000000000000000000000000000000000000000163383610e79565b610aa43383610eaa565b506109256001600555565b6108bf8383836001610ede565b6001600160a01b038381165f908152600160209081526040808320938616835292905220545f198114610b315781811015610b2357604051637dc7a0d960e11b81526001600160a01b0384166004820152602481018290526044810183905260640161090b565b610b3184848484035f610ede565b50505050565b6001600160a01b038316610b6057604051634b637e8f60e11b81525f600482015260240161090b565b6001600160a01b038216610b895760405163ec442f0560e01b81525f600482015260240161090b565b6108bf838383610fb0565b610b9c611367565b6105b283836110d6565b6040516001600160a01b038481166024830152838116604483015260648201839052610b319186918216906323b872dd906084015b604051602081830303815290604052915060e01b6020820180516001600160e01b038381831617835250505050611204565b6001600160a01b038216610c365760405163ec442f0560e01b81525f600482015260240161090b565b610c415f8383610fb0565b5050565b5f610c5084846110d6565b90505f826001600160a01b03166320487ded7f0000000000000000000000000000000000000000000000000000000000000000846040518363ffffffff1660e01b8152600401610ca192919061157c565b602060405180830381865afa158015610cbc573d5f803e3d5ffd5b505050506040513d601f19601f82011682018060405250810190610ce09190611657565b905080341015610d03576040516330c2d49b60e21b815260040160405180910390fd5b6040516396f4e9f960e01b81526001600160a01b038416906396f4e9f9903490610d53907f000000000000000000000000000000000000000000000000000000000000000090879060040161157c565b60206040518083038185885af1158015610d6f573d5f803e3d5ffd5b50505050506040513d601f19601f82011682018060405250810190610d949190611657565b6007555050505050565b8051600855606081015180515f9182918291610dc291810160209081019101611934565b919450925090505f1960ff841601610e1f5781600a5f828254610de591906116b8565b90915550610e1f90506001600160a01b037f0000000000000000000000000000000000000000000000000000000000000000168284610e79565b83516040517fe29dc34207c78fc0f6048a32f159139c33339c6d6df8b07dcd33f6d699ff2327905f90a250505050565b600260055403610e7257604051633ee5aeb560e01b815260040160405180910390fd5b6002600555565b6040516001600160a01b038381166024830152604482018390526108bf91859182169063a9059cbb90606401610bdb565b6001600160a01b038216610ed357604051634b637e8f60e11b81525f600482015260240161090b565b610c41825f83610fb0565b6001600160a01b038416610f075760405163e602df0560e01b81525f600482015260240161090b565b6001600160a01b038316610f3057604051634a1406b160e11b81525f600482015260240161090b565b6001600160a01b038085165f9081526001602090815260408083209387168352929052208290558015610b3157826001600160a01b0316846001600160a01b03167f8c5be1e5ebec7d5bd14f71427d1e84f3dd0314c0f7b2291e5b200ac8c7c3b92584604051610fa291815260200190565b60405180910390a350505050565b6001600160a01b038316610fda578060025f828254610fcf91906116b8565b9091555061104a9050565b6001600160a01b0383165f908152602081905260409020548181101561102c5760405163391434e360e21b81526001600160a01b0385166004820152602481018290526044810183905260640161090b565b6001600160a01b0384165f9081526020819052604090209082900390555b6001600160a01b03821661106657600280548290039055611084565b6001600160a01b0382165f9081526020819052604090208054820190555b816001600160a01b0316836001600160a01b03167fddf252ad1be2c89b69c2b068fc378daa952ba7f163c4a11628f55a4df523b3ef836040516110c991815260200190565b60405180910390a3505050565b6110de611367565b6040805160a081019091526006546001600160a01b031660c08201528060e0810160408051601f19818403018152918152908252805160016020828101919091529181018790526001600160a01b038616606082015291019060800160408051601f1981840301815291905281526020015f60405190808252806020026020018201604052801561119457816020015b604080518082019091525f808252602082015281526020019060019003908161116e5790505b5081526020015f6001600160a01b031681526020016111fb6040518060200160405280622dc6c081525060408051915160248084019190915281518084039091018152604490920190526020810180516001600160e01b03166397a657c960e01b17905290565b90529392505050565b5f6112186001600160a01b03841683611265565b905080515f1415801561123c57508080602001905181019061123a9190611979565b155b156108bf57604051635274afe760e01b81526001600160a01b038416600482015260240161090b565b60606105b283835f845f80856001600160a01b031684866040516112899190611998565b5f6040518083038185875af1925050503d805f81146112c3576040519150601f19603f3d011682016040523d82523d5f602084013e6112c8565b606091505b50915091506112d88683836112e2565b9695505050505050565b6060826112f7576112f28261133e565b6105b2565b815115801561130e57506001600160a01b0384163b155b1561133757604051639996b31560e01b81526001600160a01b038516600482015260240161090b565b50806105b2565b80511561134e5780518082602001fd5b604051630a12f52160e11b815260040160405180910390fd5b6040518060a001604052806060815260200160608152602001606081526020015f6001600160a01b03168152602001606081525090565b5f602082840312156113ae575f80fd5b81356001600160e01b0319811681146105b2575f80fd5b5f81518084528060208401602086015e5f602082860101526020601f19601f83011685010191505092915050565b602081525f6105b260208301846113c5565b6001600160a01b0381168114610925575f80fd5b5f806040838503121561142a575f80fd5b823561143581611405565b946020939093013593505050565b5f805f60608486031215611455575f80fd5b833561146081611405565b9250602084013561147081611405565b929592945050506040919091013590565b5f8060408385031215611492575f80fd5b8235915060208301356114a481611405565b809150509250929050565b5f602082840312156114bf575f80fd5b5035919050565b5f602082840312156114d6575f80fd5b81356105b281611405565b5f602082840312156114f1575f80fd5b813567ffffffffffffffff811115611507575f80fd5b820160a081850312156105b2575f80fd5b5f8060408385031215611529575f80fd5b823561153481611405565b915060208301356114a481611405565b600181811c9082168061155857607f821691505b60208210810361157657634e487b7160e01b5f52602260045260245ffd5b50919050565b5f604067ffffffffffffffff851683526020604081850152845160a060408601526115aa60e08601826113c5565b905081860151603f19808784030160608801526115c783836113c5565b6040890151888203830160808a0152805180835290860194505f9350908501905b8084101561161a57845180516001600160a01b03168352860151868301529385019360019390930192908601906115e8565b5060608901516001600160a01b031660a08901526080890151888203830160c08a0152955061164981876113c5565b9a9950505050505050505050565b5f60208284031215611667575f80fd5b5051919050565b634e487b7160e01b5f52601160045260245ffd5b5f8261169c57634e487b7160e01b5f52601260045260245ffd5b500490565b80820281158282048414176104e7576104e761166e565b808201808211156104e7576104e761166e565b634e487b7160e01b5f52604160045260245ffd5b6040805190810167ffffffffffffffff81118282101715611702576117026116cb565b60405290565b60405160a0810167ffffffffffffffff81118282101715611702576117026116cb565b604051601f8201601f1916810167ffffffffffffffff81118282101715611754576117546116cb565b604052919050565b803567ffffffffffffffff81168114611773575f80fd5b919050565b5f82601f830112611787575f80fd5b813567ffffffffffffffff8111156117a1576117a16116cb565b6117b4601f8201601f191660200161172b565b8181528460208386010111156117c8575f80fd5b816020850160208301375f918101602001919091529392505050565b5f82601f8301126117f3575f80fd5b8135602067ffffffffffffffff82111561180f5761180f6116cb565b61181d818360051b0161172b565b82815260069290921b8401810191818101908684111561183b575f80fd5b8286015b848110156118815760408189031215611856575f80fd5b61185e6116df565b813561186981611405565b8152818501358582015283529183019160400161183f565b509695505050505050565b5f60a0823603121561189c575f80fd5b6118a4611708565b823581526118b46020840161175c565b6020820152604083013567ffffffffffffffff808211156118d3575f80fd5b6118df36838701611778565b604084015260608501359150808211156118f7575f80fd5b61190336838701611778565b6060840152608085013591508082111561191b575f80fd5b50611928368286016117e4565b60808301525092915050565b5f805f60608486031215611946575f80fd5b835160ff81168114611956575f80fd5b60208501516040860151919450925061196e81611405565b809150509250925092565b5f60208284031215611989575f80fd5b815180151581146105b2575f80fd5b5f82518060208501845e5f92019182525091905056fea264697066735822122064e88856661e6774ca1d5da81fbe2533e5ae8138c52f54214f613cc732520e9e64736f6c63430008190033",
    "sourcePath": "/Users/fabri/hackathon/block-magic/src/CrossChainPool.sol",
    "compiler": {
        "name": "solc",
        "version": "0.8.25+commit.b61c2a91"
    },
    "functionHashes": {
        "addCrossChainSender(address)": "c401e59d",
        "allowance(address,address)": "dd62ed3e",
        "approve(address,uint256)": "095ea7b3",
        "balanceOf(address)": "70a08231",
        "calculateLPTinExchangeOfUnderlying(uint256)": "b84e0931",
        "calculateUnderlyingInExchangeOfLPT(uint256)": "6592aecc",
        "ccipReceive((bytes32,uint64,bytes,bytes,(address,uint256)[]))": "85572ffb",
        "decimals()": "313ce567",
        "deposit(address,uint256)": "47e7ef24",
        "getCrossChainSenderAndSelector()": "bfb154c4",
        "getFeesForTeleporting(uint256,address)": "3f253ba1",
        "getOtherChainUnderlyingToken()": "cf0c6743",
        "getRouter()": "b0f479a1",
        "getUnderlyingToken()": "ee719bc8",
        "name()": "06fdde03",
        "redeem(uint256)": "db006a75",
        "supportsInterface(bytes4)": "01ffc9a7",
        "symbol()": "95d89b41",
        "teleport(uint256,address)": "7728c2b5",
        "totalSupply()": "18160ddd",
        "transfer(address,uint256)": "a9059cbb",
        "transferFrom(address,address,uint256)": "23b872dd"
    },
    "gasEstimates": {
        "creation": {
            "codeDepositCost": "1325600",
            "executionCost": "infinite",
            "totalCost": "infinite"
        },
        "external": {
            "addCrossChainSender(address)": "24595",
            "allowance(address,address)": "infinite",
            "approve(address,uint256)": "24759",
            "balanceOf(address)": "2642",
            "calculateLPTinExchangeOfUnderlying(uint256)": "infinite",
            "calculateUnderlyingInExchangeOfLPT(uint256)": "infinite",
            "ccipReceive((bytes32,uint64,bytes,bytes,(address,uint256)[]))": "infinite",
            "decimals()": "199",
            "deposit(address,uint256)": "infinite",
            "getCrossChainSenderAndSelector()": "infinite",
            "getFeesForTeleporting(uint256,address)": "infinite",
            "getOtherChainUnderlyingToken()": "infinite",
            "getRouter()": "infinite",
            "getUnderlyingToken()": "infinite",
            "name()": "infinite",
            "redeem(uint256)": "infinite",
            "supportsInterface(bytes4)": "447",
            "symbol()": "infinite",
            "teleport(uint256,address)": "infinite",
            "totalSupply()": "2370",
            "transfer(address,uint256)": "51262",
            "transferFrom(address,address,uint256)": "infinite"
        },
        "internal": {
            "_buildTeleportMessage(uint256,address)": "infinite",
            "_ccipReceive(struct Client.Any2EVMMessage memory)": "infinite",
            "_sendCCipMessageTeleport(uint256,address,address)": "infinite",
            "_simulateMessageTeleport(uint256,address)": "infinite"
        }
    }
}